{
  "contractName": "Faucet",
  "abi": [
    {
      "inputs": [
        {
          "internalType": "uint256",
          "name": "",
          "type": "uint256"
        }
      ],
      "name": "funders",
      "outputs": [
        {
          "internalType": "address",
          "name": "",
          "type": "address"
        }
      ],
      "stateMutability": "view",
      "type": "function",
      "constant": true
    },
    {
      "stateMutability": "payable",
      "type": "receive",
      "payable": true
    },
    {
      "inputs": [],
      "name": "addFunds",
      "outputs": [],
      "stateMutability": "payable",
      "type": "function",
      "payable": true
    },
    {
      "inputs": [],
      "name": "getAllFunders",
      "outputs": [
        {
          "internalType": "address[]",
          "name": "",
          "type": "address[]"
        }
      ],
      "stateMutability": "view",
      "type": "function",
      "constant": true
    },
    {
      "inputs": [],
      "name": "addNewFunder",
      "outputs": [],
      "stateMutability": "nonpayable",
      "type": "function"
    },
    {
      "inputs": [
        {
          "internalType": "uint256",
          "name": "amount",
          "type": "uint256"
        }
      ],
      "name": "withdraw",
      "outputs": [],
      "stateMutability": "nonpayable",
      "type": "function"
    },
    {
      "inputs": [
        {
          "internalType": "uint8",
          "name": "index",
          "type": "uint8"
        }
      ],
      "name": "getFunderAtIndex",
      "outputs": [
        {
          "internalType": "address",
          "name": "",
          "type": "address"
        }
      ],
      "stateMutability": "view",
      "type": "function",
      "constant": true
    }
  ],
  "bytecode": "0x608060405234801561001057600080fd5b5061083d806100206000396000f3fe6080604052600436106100595760003560e01c80630a93cf33146100655780632e1a7d4d146100a25780634a470dd9146100cb5780636fbbb55d146100e2578063a26759cb1461010d578063dc0d3dff1461011757610060565b3661006057005b600080fd5b34801561007157600080fd5b5061008c600480360381019061008791906104c3565b610154565b6040516100999190610531565b60405180910390f35b3480156100ae57600080fd5b506100c960048036038101906100c49190610582565b610187565b005b3480156100d757600080fd5b506100e061021e565b005b3480156100ee57600080fd5b506100f7610353565b604051610104919061066d565b60405180910390f35b6101156103e1565b005b34801561012357600080fd5b5061013e60048036038101906101399190610582565b610446565b60405161014b9190610531565b60405180910390f35b60008061015f610353565b9050808360ff16815181106101775761017661068f565b5b6020026020010151915050919050565b8067016345785d8a00008111156101d3576040517f08c379a00000000000000000000000000000000000000000000000000000000081526004016101ca90610741565b60405180910390fd5b3373ffffffffffffffffffffffffffffffffffffffff166108fc839081150290604051600060405180830381858888f19350505050158015610219573d6000803e3d6000fd5b505050565b600260003373ffffffffffffffffffffffffffffffffffffffff1673ffffffffffffffffffffffffffffffffffffffff16815260200190815260200160002060009054906101000a900460ff166102e0576001600081548092919061028290610790565b91905055506001600260003373ffffffffffffffffffffffffffffffffffffffff1673ffffffffffffffffffffffffffffffffffffffff16815260200190815260200160002060006101000a81548160ff0219169083151502179055505b600060015467ffffffffffffffff8111156102fe576102fd6107d8565b5b60405190808252806020026020018201604052801561032c5781602001602082028036833780820191505090505b50905060005b60015481101561034f57808061034790610790565b915050610332565b5050565b606060008054806020026020016040519081016040528092919081815260200182805480156103d757602002820191906000526020600020905b8160009054906101000a900473ffffffffffffffffffffffffffffffffffffffff1673ffffffffffffffffffffffffffffffffffffffff168152602001906001019080831161038d575b5050505050905090565b6000339080600181540180825580915050600190039060005260206000200160009091909190916101000a81548173ffffffffffffffffffffffffffffffffffffffff021916908373ffffffffffffffffffffffffffffffffffffffff160217905550565b6000818154811061045657600080fd5b906000526020600020016000915054906101000a900473ffffffffffffffffffffffffffffffffffffffff1681565b600080fd5b600060ff82169050919050565b6104a08161048a565b81146104ab57600080fd5b50565b6000813590506104bd81610497565b92915050565b6000602082840312156104d9576104d8610485565b5b60006104e7848285016104ae565b91505092915050565b600073ffffffffffffffffffffffffffffffffffffffff82169050919050565b600061051b826104f0565b9050919050565b61052b81610510565b82525050565b60006020820190506105466000830184610522565b92915050565b6000819050919050565b61055f8161054c565b811461056a57600080fd5b50565b60008135905061057c81610556565b92915050565b60006020828403121561059857610597610485565b5b60006105a68482850161056d565b91505092915050565b600081519050919050565b600082825260208201905092915050565b6000819050602082019050919050565b6105e481610510565b82525050565b60006105f683836105db565b60208301905092915050565b6000602082019050919050565b600061061a826105af565b61062481856105ba565b935061062f836105cb565b8060005b8381101561066057815161064788826105ea565b975061065283610602565b925050600181019050610633565b5085935050505092915050565b60006020820190508181036000830152610687818461060f565b905092915050565b7f4e487b7100000000000000000000000000000000000000000000000000000000600052603260045260246000fd5b600082825260208201905092915050565b7f596f752063616e206f6e6c7920776974686472617720302e312065746865722060008201527f617420612074696d650000000000000000000000000000000000000000000000602082015250565b600061072b6029836106be565b9150610736826106cf565b604082019050919050565b6000602082019050818103600083015261075a8161071e565b9050919050565b7f4e487b7100000000000000000000000000000000000000000000000000000000600052601160045260246000fd5b600061079b8261054c565b91507fffffffffffffffffffffffffffffffffffffffffffffffffffffffffffffffff82036107cd576107cc610761565b5b600182019050919050565b7f4e487b7100000000000000000000000000000000000000000000000000000000600052604160045260246000fdfea2646970667358221220b883d8aab953198e71271486c2432f95866d6baf45fb7865f0793765fd312d1764736f6c634300080f0033",
  "immutableReferences": {},
  "source": "// SPDX-License-Identifier: MIT\npragma solidity >=0.4.22 <0.9.0;\n\ncontract Faucet {\n    // storage variables\n    address[] public funders;\n    uint private numberOfFunders;\n    mapping(address => bool) private funderss;\n    \n    receive() external payable {}\n\n    function addFunds() external payable {\n        funders.push(msg.sender);\n    }\n\n    function getAllFunders() public view returns (address[] memory) {\n        return funders;\n    }\n\n    function addNewFunder () external {\n        if(!funderss[msg.sender]){\n             numberOfFunders++;\n            funderss[msg.sender] = true;\n        }\n        address[] memory newFunders = new address[](numberOfFunders);\n\n        for (uint256 index = 0; index < numberOfFunders; index++) {\n        }\n    }\nmodifier limitWithdraw(uint amount) {\n    require(amount <= 0.1 ether, \"You can only withdraw 0.1 ether at a time\");\n_;\n}\n\nfunction withdraw (uint amount) external limitWithdraw(amount) {\n    payable(msg.sender).transfer(amount);\n}\n    function getFunderAtIndex(uint8 index) public view returns (address) {\n        address[] memory _funders = getAllFunders();\n        return _funders[index];\n    }\n\n}",
  "sourcePath": "/Users/ola/Desktop/Projects/LogicGlide/blockchain/solidity/faucet/contracts/FaucetContract.sol",
  "compiler": {
    "name": "solc",
    "version": "0.8.15+commit.e14f2714.Emscripten.clang"
  },
  "schemaVersion": "3.4.8",
  "updatedAt": "2023-01-08T10:35:50.095Z",
  "networkType": "ethereum",
  "devdoc": {
    "kind": "dev",
    "methods": {},
    "version": 1
  },
  "userdoc": {
    "kind": "user",
    "methods": {},
    "version": 1
  }
}