{
  "contractName": "Test",
  "abi": [
    {
      "inputs": [
        {
          "internalType": "uint8",
          "name": "testNum",
          "type": "uint8"
        }
      ],
      "name": "test",
      "outputs": [
        {
          "internalType": "uint256",
          "name": "",
          "type": "uint256"
        }
      ],
      "stateMutability": "pure",
      "type": "function"
    }
  ],
  "bytecode": "0x608060405234801561001057600080fd5b50610132806100206000396000f3fe6080604052348015600f57600080fd5b506004361060285760003560e01c8063f1820bdc14602d575b600080fd5b60436004803603810190603f919060a4565b6057565b604051604e919060e3565b60405180910390f35b6000600460405150508160ff169050919050565b600080fd5b600060ff82169050919050565b6084816070565b8114608e57600080fd5b50565b600081359050609e81607d565b92915050565b60006020828403121560b75760b6606b565b5b600060c3848285016091565b91505092915050565b6000819050919050565b60dd8160cc565b82525050565b600060208201905060f6600083018460d6565b9291505056fea2646970667358221220ce38ff6b01c5375d17355ae357cc3077d9b87125794dbbd33c463841fa1b2a9864736f6c634300080f0033",
  "immutableReferences": {},
  "source": "// SPDX-License-Identifier: MIT\npragma solidity >=0.4.22 <0.9.0;\n\ncontract Test {\n    function test(uint8 testNum) external pure returns (uint) {\n        assembly {\n         let x := 4\n         let _fmp := mload(0x40)   \n        }\n\n        return testNum;\n    }\n}",
  "sourcePath": "/Users/ola/Desktop/Projects/LogicGlide/blockchain/solidity/faucet/contracts/Test.sol",
  "compiler": {
    "name": "solc",
    "version": "0.8.15+commit.e14f2714.Emscripten.clang"
  },
  "schemaVersion": "3.4.8",
  "updatedAt": "2023-01-08T09:20:52.611Z",
  "devdoc": {
    "kind": "dev",
    "methods": {},
    "version": 1
  },
  "userdoc": {
    "kind": "user",
    "methods": {},
    "version": 1
  }
}